{
  "contractName": "JobPortal",
  "abi": [
    {
      "inputs": [
        {
          "internalType": "string",
          "name": "_name",
          "type": "string"
        },
        {
          "internalType": "uint256",
          "name": "_age",
          "type": "uint256"
        },
        {
          "internalType": "string",
          "name": "_email",
          "type": "string"
        },
        {
          "internalType": "string",
          "name": "_applicationType",
          "type": "string"
        }
      ],
      "name": "addApplicant",
      "outputs": [],
      "stateMutability": "nonpayable",
      "type": "function"
    },
    {
      "inputs": [
        {
          "internalType": "uint256",
          "name": "_id",
          "type": "uint256"
        }
      ],
      "name": "getApplicantDetails",
      "outputs": [
        {
          "internalType": "string",
          "name": "name",
          "type": "string"
        },
        {
          "internalType": "uint256",
          "name": "age",
          "type": "uint256"
        },
        {
          "internalType": "string",
          "name": "email",
          "type": "string"
        },
        {
          "internalType": "string",
          "name": "applicationType",
          "type": "string"
        }
      ],
      "stateMutability": "view",
      "type": "function",
      "constant": true
    },
    {
      "inputs": [
        {
          "internalType": "uint256",
          "name": "_id",
          "type": "uint256"
        }
      ],
      "name": "getApplicationType",
      "outputs": [
        {
          "internalType": "string",
          "name": "applicationType",
          "type": "string"
        }
      ],
      "stateMutability": "view",
      "type": "function",
      "constant": true
    },
    {
      "inputs": [
        {
          "internalType": "string",
          "name": "_title",
          "type": "string"
        },
        {
          "internalType": "string",
          "name": "_description",
          "type": "string"
        },
        {
          "internalType": "uint256",
          "name": "_salary",
          "type": "uint256"
        },
        {
          "internalType": "string",
          "name": "_location",
          "type": "string"
        }
      ],
      "name": "addJob",
      "outputs": [],
      "stateMutability": "nonpayable",
      "type": "function"
    },
    {
      "inputs": [
        {
          "internalType": "uint256",
          "name": "_id",
          "type": "uint256"
        }
      ],
      "name": "getJobDetails",
      "outputs": [
        {
          "internalType": "string",
          "name": "jobTitle",
          "type": "string"
        },
        {
          "internalType": "string",
          "name": "description",
          "type": "string"
        },
        {
          "internalType": "uint256",
          "name": "salary",
          "type": "uint256"
        },
        {
          "internalType": "string",
          "name": "location",
          "type": "string"
        }
      ],
      "stateMutability": "view",
      "type": "function",
      "constant": true
    },
    {
      "inputs": [
        {
          "internalType": "uint256",
          "name": "_applicantId",
          "type": "uint256"
        },
        {
          "internalType": "uint256",
          "name": "_jobId",
          "type": "uint256"
        }
      ],
      "name": "applyForJob",
      "outputs": [],
      "stateMutability": "nonpayable",
      "type": "function"
    },
    {
      "inputs": [
        {
          "internalType": "uint256",
          "name": "_applicantId",
          "type": "uint256"
        },
        {
          "internalType": "uint256",
          "name": "_jobId",
          "type": "uint256"
        },
        {
          "internalType": "uint256",
          "name": "_rating",
          "type": "uint256"
        }
      ],
      "name": "provideApplicantRating",
      "outputs": [],
      "stateMutability": "nonpayable",
      "type": "function"
    },
    {
      "inputs": [
        {
          "internalType": "uint256",
          "name": "_applicantId",
          "type": "uint256"
        },
        {
          "internalType": "uint256",
          "name": "_jobId",
          "type": "uint256"
        }
      ],
      "name": "getApplicantRating",
      "outputs": [
        {
          "internalType": "uint256",
          "name": "rating",
          "type": "uint256"
        }
      ],
      "stateMutability": "view",
      "type": "function",
      "constant": true
    }
  ],
  "bytecode": "0x608060405234801561001057600080fd5b5061145c806100206000396000f3fe608060405234801561001057600080fd5b50600436106100885760003560e01c80639d8c38d21161005b5780639d8c38d21461012b578063bab3fed41461015b578063bfc7a66e14610177578063c88864b81461019357610088565b806319a3e1981461008d5780634cac35c6146100a95780638798a47b146100dc5780639a3f8e4e1461010f575b600080fd5b6100a760048036038101906100a29190610ba4565b6101c3565b005b6100c360048036038101906100be9190610c5f565b610278565b6040516100d39493929190610d1a565b60405180910390f35b6100f660048036038101906100f19190610c5f565b61048b565b6040516101069493929190610d74565b60405180910390f35b61012960048036038101906101249190610dce565b61069a565b005b61014560048036038101906101409190610c5f565b61075f565b6040516101529190610e89565b60405180910390f35b61017560048036038101906101709190610eab565b610806565b005b610191600480360381019061018c9190610efe565b6108b3565b005b6101ad60048036038101906101a89190610efe565b610992565b6040516101ba9190610f3e565b60405180910390f35b600460008154809291906101d690610f88565b91905055506040518060a0016040528060045481526020018581526020018481526020018381526020018281525060016000600454815260200190815260200160002060008201518160000155602082015181600101908161023891906111dc565b50604082015181600201908161024e91906111dc565b5060608201518160030155608082015181600401908161026e91906111dc565b5090505050505050565b6060806000606060016000868152602001908152602001600020600101600160008781526020019081526020016000206002016001600088815260200190815260200160002060030154600160008981526020019081526020016000206004018380546102e490610fff565b80601f016020809104026020016040519081016040528092919081815260200182805461031090610fff565b801561035d5780601f106103325761010080835404028352916020019161035d565b820191906000526020600020905b81548152906001019060200180831161034057829003601f168201915b5050505050935082805461037090610fff565b80601f016020809104026020016040519081016040528092919081815260200182805461039c90610fff565b80156103e95780601f106103be576101008083540402835291602001916103e9565b820191906000526020600020905b8154815290600101906020018083116103cc57829003601f168201915b505050505092508080546103fc90610fff565b80601f016020809104026020016040519081016040528092919081815260200182805461042890610fff565b80156104755780601f1061044a57610100808354040283529160200191610475565b820191906000526020600020905b81548152906001019060200180831161045857829003601f168201915b5050505050905093509350935093509193509193565b60606000606080600080868152602001908152602001600020600101600080878152602001908152602001600020600201546000808881526020019081526020016000206003016000808981526020019081526020016000206004018380546104f390610fff565b80601f016020809104026020016040519081016040528092919081815260200182805461051f90610fff565b801561056c5780601f106105415761010080835404028352916020019161056c565b820191906000526020600020905b81548152906001019060200180831161054f57829003601f168201915b5050505050935081805461057f90610fff565b80601f01602080910402602001604051908101604052809291908181526020018280546105ab90610fff565b80156105f85780601f106105cd576101008083540402835291602001916105f8565b820191906000526020600020905b8154815290600101906020018083116105db57829003601f168201915b5050505050915080805461060b90610fff565b80601f016020809104026020016040519081016040528092919081815260200182805461063790610fff565b80156106845780601f1061065957610100808354040283529160200191610684565b820191906000526020600020905b81548152906001019060200180831161066757829003601f168201915b5050505050905093509350935093509193509193565b600360008154809291906106ad90610f88565b91905055506040518060c0016040528060035481526020018581526020018481526020018381526020018281526020016000815250600080600354815260200190815260200160002060008201518160000155602082015181600101908161071591906111dc565b5060408201518160020155606082015181600301908161073591906111dc565b50608082015181600401908161074b91906111dc565b5060a0820151816005015590505050505050565b6060600080838152602001908152602001600020600401805461078190610fff565b80601f01602080910402602001604051908101604052809291908181526020018280546107ad90610fff565b80156107fa5780601f106107cf576101008083540402835291602001916107fa565b820191906000526020600020905b8154815290600101906020018083116107dd57829003601f168201915b50505050509050919050565b600354831115801561081a57506004548211155b610859576040517f08c379a0000000000000000000000000000000000000000000000000000000008152600401610850906112fa565b60405180910390fd5b80600260008581526020019081526020016000206000848152602001908152602001600020819055508060008085815260200190815260200160002060050160008282546108a7919061131a565b92505081905550505050565b6000806000848152602001908152602001600020600001540361090b576040517f08c379a00000000000000000000000000000000000000000000000000000000081526004016109029061139a565b60405180910390fd5b6000600160008381526020019081526020016000206000015403610964576040517f08c379a000000000000000000000000000000000000000000000000000000000815260040161095b90611406565b60405180910390fd5b6000600260008481526020019081526020016000206000838152602001908152602001600020819055505050565b600060035483111580156109a857506004548211155b6109e7576040517f08c379a00000000000000000000000000000000000000000000000000000000081526004016109de906112fa565b60405180910390fd5b60026000848152602001908152602001600020600083815260200190815260200160002054905092915050565b6000604051905090565b600080fd5b600080fd5b600080fd5b600080fd5b6000601f19601f8301169050919050565b7f4e487b7100000000000000000000000000000000000000000000000000000000600052604160045260246000fd5b610a7b82610a32565b810181811067ffffffffffffffff82111715610a9a57610a99610a43565b5b80604052505050565b6000610aad610a14565b9050610ab98282610a72565b919050565b600067ffffffffffffffff821115610ad957610ad8610a43565b5b610ae282610a32565b9050602081019050919050565b82818337600083830152505050565b6000610b11610b0c84610abe565b610aa3565b905082815260208101848484011115610b2d57610b2c610a2d565b5b610b38848285610aef565b509392505050565b600082601f830112610b5557610b54610a28565b5b8135610b65848260208601610afe565b91505092915050565b6000819050919050565b610b8181610b6e565b8114610b8c57600080fd5b50565b600081359050610b9e81610b78565b92915050565b60008060008060808587031215610bbe57610bbd610a1e565b5b600085013567ffffffffffffffff811115610bdc57610bdb610a23565b5b610be887828801610b40565b945050602085013567ffffffffffffffff811115610c0957610c08610a23565b5b610c1587828801610b40565b9350506040610c2687828801610b8f565b925050606085013567ffffffffffffffff811115610c4757610c46610a23565b5b610c5387828801610b40565b91505092959194509250565b600060208284031215610c7557610c74610a1e565b5b6000610c8384828501610b8f565b91505092915050565b600081519050919050565b600082825260208201905092915050565b60005b83811015610cc6578082015181840152602081019050610cab565b60008484015250505050565b6000610cdd82610c8c565b610ce78185610c97565b9350610cf7818560208601610ca8565b610d0081610a32565b840191505092915050565b610d1481610b6e565b82525050565b60006080820190508181036000830152610d348187610cd2565b90508181036020830152610d488186610cd2565b9050610d576040830185610d0b565b8181036060830152610d698184610cd2565b905095945050505050565b60006080820190508181036000830152610d8e8187610cd2565b9050610d9d6020830186610d0b565b8181036040830152610daf8185610cd2565b90508181036060830152610dc38184610cd2565b905095945050505050565b60008060008060808587031215610de857610de7610a1e565b5b600085013567ffffffffffffffff811115610e0657610e05610a23565b5b610e1287828801610b40565b9450506020610e2387828801610b8f565b935050604085013567ffffffffffffffff811115610e4457610e43610a23565b5b610e5087828801610b40565b925050606085013567ffffffffffffffff811115610e7157610e70610a23565b5b610e7d87828801610b40565b91505092959194509250565b60006020820190508181036000830152610ea38184610cd2565b905092915050565b600080600060608486031215610ec457610ec3610a1e565b5b6000610ed286828701610b8f565b9350506020610ee386828701610b8f565b9250506040610ef486828701610b8f565b9150509250925092565b60008060408385031215610f1557610f14610a1e565b5b6000610f2385828601610b8f565b9250506020610f3485828601610b8f565b9150509250929050565b6000602082019050610f536000830184610d0b565b92915050565b7f4e487b7100000000000000000000000000000000000000000000000000000000600052601160045260246000fd5b6000610f9382610b6e565b91507fffffffffffffffffffffffffffffffffffffffffffffffffffffffffffffffff8203610fc557610fc4610f59565b5b600182019050919050565b7f4e487b7100000000000000000000000000000000000000000000000000000000600052602260045260246000fd5b6000600282049050600182168061101757607f821691505b60208210810361102a57611029610fd0565b5b50919050565b60008190508160005260206000209050919050565b60006020601f8301049050919050565b600082821b905092915050565b6000600883026110927fffffffffffffffffffffffffffffffffffffffffffffffffffffffffffffffff82611055565b61109c8683611055565b95508019841693508086168417925050509392505050565b6000819050919050565b60006110d96110d46110cf84610b6e565b6110b4565b610b6e565b9050919050565b6000819050919050565b6110f3836110be565b6111076110ff826110e0565b848454611062565b825550505050565b600090565b61111c61110f565b6111278184846110ea565b505050565b5b8181101561114b57611140600082611114565b60018101905061112d565b5050565b601f8211156111905761116181611030565b61116a84611045565b81016020851015611179578190505b61118d61118585611045565b83018261112c565b50505b505050565b600082821c905092915050565b60006111b360001984600802611195565b1980831691505092915050565b60006111cc83836111a2565b9150826002028217905092915050565b6111e582610c8c565b67ffffffffffffffff8111156111fe576111fd610a43565b5b6112088254610fff565b61121382828561114f565b600060209050601f8311600181146112465760008415611234578287015190505b61123e85826111c0565b8655506112a6565b601f19841661125486611030565b60005b8281101561127c57848901518255600182019150602085019450602081019050611257565b868310156112995784890151611295601f8916826111a2565b8355505b6001600288020188555050505b505050505050565b7f496e76616c6964206170706c6963616e74206f72206a6f622049440000000000600082015250565b60006112e4601b83610c97565b91506112ef826112ae565b602082019050919050565b60006020820190508181036000830152611313816112d7565b9050919050565b600061132582610b6e565b915061133083610b6e565b925082820190508082111561134857611347610f59565b5b92915050565b7f496e76616c6964206170706c6963616e74204944000000000000000000000000600082015250565b6000611384601483610c97565b915061138f8261134e565b602082019050919050565b600060208201905081810360008301526113b381611377565b9050919050565b7f496e76616c6964206a6f62204944000000000000000000000000000000000000600082015250565b60006113f0600e83610c97565b91506113fb826113ba565b602082019050919050565b6000602082019050818103600083015261141f816113e3565b905091905056fea2646970667358221220d308f1dc7f14a551b63169969c902e2384463ced47973bb3a293c613d63f235464736f6c63430008130033",
  "immutableReferences": {},
  "source": "// SPDX-License-Identifier: MIT\npragma solidity ^0.8.0;\n\ncontract JobPortal {\n    \n    struct Applicant {\n        uint id;\n        string name;\n        uint age;\n        string email;\n        string applicationType;\n        uint rating;\n    }\n    \n    struct Job {\n        uint id;\n        string title;\n        string description;\n        uint salary;\n        string location;\n    }\n    \n    mapping (uint => Applicant) applicants;\n    mapping (uint => Job) jobs;\n    mapping (uint => mapping(uint => uint)) applicantRatings; \n    uint numApplicants;\n    uint numJobs;\n    \n    // Function to add a new applicant\n    function addApplicant(string memory _name, uint _age, string memory _email, string memory _applicationType) public {\n        numApplicants++;\n        applicants[numApplicants] = Applicant(numApplicants, _name, _age, _email, _applicationType, 0);\n    }\n    \n    // Function to get applicant details\n    function getApplicantDetails(uint _id) public view returns (string memory name, uint age, string memory email, string memory applicationType) {\n        return (applicants[_id].name, applicants[_id].age, applicants[_id].email, applicants[_id].applicationType);\n    }\n    \n    // Function to get applicant type\n    function getApplicationType(uint _id) public view returns (string memory applicationType) {\n        return applicants[_id].applicationType;\n    }\n    \n    // Function to add a new job\n    function addJob(string memory _title, string memory _description, uint _salary, string memory _location) public {\n        numJobs++;\n        jobs[numJobs] = Job(numJobs, _title, _description, _salary, _location);\n    }\n    \n    // Function to get job details\n    function getJobDetails(uint _id) public view returns (string memory jobTitle, string memory description, uint salary, string memory location) {\n        return (jobs[_id].title, jobs[_id].description, jobs[_id].salary, jobs[_id].location);\n    }\n\n    // Function to apply For job\n    function applyForJob(uint _applicantId, uint _jobId) public {\n    require(applicants[_applicantId].id != 0, \"Invalid applicant ID\");\n    require(jobs[_jobId].id != 0, \"Invalid job ID\");\n            applicantRatings[_applicantId][_jobId] = 0;\n    }\n    \n    // Function to provide rating to an applicant for a particular job\n    function provideApplicantRating(uint _applicantId, uint _jobId, uint _rating) public {\n        require(_applicantId <= numApplicants && _jobId <= numJobs, \"Invalid applicant or job ID\");\n        applicantRatings[_applicantId][_jobId] = _rating;\n        applicants[_applicantId].rating += _rating;\n    }\n    \n    // Function to fetch applicant rating for a particular job\n    function getApplicantRating(uint _applicantId, uint _jobId) public view returns (uint rating) {\n        require(_applicantId <= numApplicants && _jobId <= numJobs, \"Invalid applicant or job ID\");\n        return applicantRatings[_applicantId][_jobId];\n    }\n}\n\n\n\n\n\n\n",
  "sourcePath": "C:\\Users\\Administrator\\Desktop\\JobPortal\\contracts\\JobPortal.sol",
  "compiler": {
    "name": "solc",
    "version": "0.8.19+commit.7dd6d404.Emscripten.clang"
  },
  "schemaVersion": "3.4.13",
  "updatedAt": "2023-04-19T02:49:24.540Z",
  "networkType": "ethereum",
  "devdoc": {
    "kind": "dev",
    "methods": {},
    "version": 1
  },
  "userdoc": {
    "kind": "user",
    "methods": {},
    "version": 1
  }
}